{
  "_format": "hh-sol-artifact-1",
  "contractName": "WavePortal",
  "sourceName": "contracts/WavePortal.sol",
  "abi": [
    {
      "inputs": [],
      "stateMutability": "nonpayable",
      "type": "constructor"
    },
    {
      "anonymous": false,
      "inputs": [
        {
          "indexed": true,
          "internalType": "address",
          "name": "from",
          "type": "address"
        },
        {
          "indexed": false,
          "internalType": "string",
          "name": "message",
          "type": "string"
        },
        {
          "indexed": false,
          "internalType": "uint256",
          "name": "timestamp",
          "type": "uint256"
        }
      ],
      "name": "NewWave",
      "type": "event"
    },
    {
      "inputs": [],
      "name": "getAllWaves",
      "outputs": [
        {
          "components": [
            {
              "internalType": "address",
              "name": "waver",
              "type": "address"
            },
            {
              "internalType": "string",
              "name": "message",
              "type": "string"
            },
            {
              "internalType": "uint256",
              "name": "timestamp",
              "type": "uint256"
            }
          ],
          "internalType": "struct WavePortal.Wave[]",
          "name": "",
          "type": "tuple[]"
        }
      ],
      "stateMutability": "view",
      "type": "function"
    },
    {
      "inputs": [],
      "name": "getMyTotalWaves",
      "outputs": [
        {
          "internalType": "uint256",
          "name": "",
          "type": "uint256"
        }
      ],
      "stateMutability": "view",
      "type": "function"
    },
    {
      "inputs": [],
      "name": "getTotalWaves",
      "outputs": [
        {
          "internalType": "uint256",
          "name": "",
          "type": "uint256"
        }
      ],
      "stateMutability": "view",
      "type": "function"
    },
    {
      "inputs": [
        {
          "internalType": "string",
          "name": "_message",
          "type": "string"
        }
      ],
      "name": "wave",
      "outputs": [],
      "stateMutability": "nonpayable",
      "type": "function"
    }
  ],
  "bytecode": "0x60806040523480156200001157600080fd5b506200005d6040518060400160405280602081526020017f746869732069732074686520636f6e747261637420636f6e7374727563746f728152506200006360201b620004f51760201c565b620001f7565b62000103816040516024016200007a919062000170565b6040516020818303038152906040527f41304fac000000000000000000000000000000000000000000000000000000007bffffffffffffffffffffffffffffffffffffffffffffffffffffffff19166020820180517bffffffffffffffffffffffffffffffffffffffffffffffffffffffff83818316178352505050506200010660201b60201c565b50565b60008151905060006a636f6e736f6c652e6c6f679050602083016000808483855afa5050505050565b60006200013c8262000194565b6200014881856200019f565b93506200015a818560208601620001b0565b6200016581620001e6565b840191505092915050565b600060208201905081810360008301526200018c81846200012f565b905092915050565b600081519050919050565b600082825260208201905092915050565b60005b83811015620001d0578082015181840152602081019050620001b3565b83811115620001e0576000848401525b50505050565b6000601f19601f8301169050919050565b610e3d80620002076000396000f3fe608060405234801561001057600080fd5b506004361061004c5760003560e01c8063449d46c0146100515780639a2cdc081461006d578063aa7166591461008b578063bd43a908146100a9575b600080fd5b61006b6004803603810190610066919061089c565b6100c7565b005b610075610295565b6040516100829190610b5b565b60405180910390f35b6100936102e0565b6040516100a09190610b5b565b60405180910390f35b6100b16103a4565b6040516100be9190610a64565b60405180910390f35b6101076040518060400160405280601681526020017f257320776176656420772f206d65737361676520257300000000000000000000815250338361058e565b60016000803373ffffffffffffffffffffffffffffffffffffffff1673ffffffffffffffffffffffffffffffffffffffff16815260200190815260200160002060008282546101569190610c32565b92505081905550600180600082825461016f9190610c32565b92505081905550600260405180606001604052803373ffffffffffffffffffffffffffffffffffffffff16815260200183815260200142815250908060018154018082558091505060019003906000526020600020906003020160009091909190915060008201518160000160006101000a81548173ffffffffffffffffffffffffffffffffffffffff021916908373ffffffffffffffffffffffffffffffffffffffff1602179055506020820151816001019080519060200190610235929190610791565b506040820151816002015550503373ffffffffffffffffffffffffffffffffffffffff167f6728ef66814a55b797863bf8ffcd954b19cbca4ed4f0e6cf04c980705fd82c36824260405161028a929190610b2b565b60405180910390a250565b60006102d86040518060400160405280600e81526020017f25642074696d657320776176656400000000000000000000000000000000000081525060015461062d565b600154905090565b60006103606040518060400160405280601581526020017f2573206861732077617665642025642074696d65730000000000000000000000815250336000803373ffffffffffffffffffffffffffffffffffffffff1673ffffffffffffffffffffffffffffffffffffffff168152602001908152602001600020546106c9565b6000803373ffffffffffffffffffffffffffffffffffffffff1673ffffffffffffffffffffffffffffffffffffffff16815260200190815260200160002054905090565b60606002805480602002602001604051908101604052809291908181526020016000905b828210156104ec57838290600052602060002090600302016040518060600160405290816000820160009054906101000a900473ffffffffffffffffffffffffffffffffffffffff1673ffffffffffffffffffffffffffffffffffffffff1673ffffffffffffffffffffffffffffffffffffffff16815260200160018201805461045190610d06565b80601f016020809104026020016040519081016040528092919081815260200182805461047d90610d06565b80156104ca5780601f1061049f576101008083540402835291602001916104ca565b820191906000526020600020905b8154815290600101906020018083116104ad57829003601f168201915b50505050508152602001600282015481525050815260200190600101906103c8565b50505050905090565b61058b816040516024016105099190610a86565b6040516020818303038152906040527f41304fac000000000000000000000000000000000000000000000000000000007bffffffffffffffffffffffffffffffffffffffffffffffffffffffff19166020820180517bffffffffffffffffffffffffffffffffffffffffffffffffffffffff8381831617835250505050610768565b50565b6106288383836040516024016105a693929190610aa8565b6040516020818303038152906040527fe0e9ad4f000000000000000000000000000000000000000000000000000000007bffffffffffffffffffffffffffffffffffffffffffffffffffffffff19166020820180517bffffffffffffffffffffffffffffffffffffffffffffffffffffffff8381831617835250505050610768565b505050565b6106c58282604051602401610643929190610b2b565b6040516020818303038152906040527f9710a9d0000000000000000000000000000000000000000000000000000000007bffffffffffffffffffffffffffffffffffffffffffffffffffffffff19166020820180517bffffffffffffffffffffffffffffffffffffffffffffffffffffffff8381831617835250505050610768565b5050565b6107638383836040516024016106e193929190610aed565b6040516020818303038152906040527f07c81217000000000000000000000000000000000000000000000000000000007bffffffffffffffffffffffffffffffffffffffffffffffffffffffff19166020820180517bffffffffffffffffffffffffffffffffffffffffffffffffffffffff8381831617835250505050610768565b505050565b60008151905060006a636f6e736f6c652e6c6f679050602083016000808483855afa5050505050565b82805461079d90610d06565b90600052602060002090601f0160209004810192826107bf5760008555610806565b82601f106107d857805160ff1916838001178555610806565b82800160010185558215610806579182015b828111156108055782518255916020019190600101906107ea565b5b5090506108139190610817565b5090565b5b80821115610830576000816000905550600101610818565b5090565b600061084761084284610b9b565b610b76565b90508281526020810184848401111561085f57600080fd5b61086a848285610cc4565b509392505050565b600082601f83011261088357600080fd5b8135610893848260208601610834565b91505092915050565b6000602082840312156108ae57600080fd5b600082013567ffffffffffffffff8111156108c857600080fd5b6108d484828501610872565b91505092915050565b60006108e983836109f6565b905092915050565b6108fa81610c88565b82525050565b61090981610c88565b82525050565b600061091a82610bdc565b6109248185610bff565b93508360208202850161093685610bcc565b8060005b85811015610972578484038952815161095385826108dd565b945061095e83610bf2565b925060208a0199505060018101905061093a565b50829750879550505050505092915050565b600061098f82610be7565b6109998185610c10565b93506109a9818560208601610cd3565b6109b281610df6565b840191505092915050565b60006109c882610be7565b6109d28185610c21565b93506109e2818560208601610cd3565b6109eb81610df6565b840191505092915050565b6000606083016000830151610a0e60008601826108f1565b5060208301518482036020860152610a268282610984565b9150506040830151610a3b6040860182610a46565b508091505092915050565b610a4f81610cba565b82525050565b610a5e81610cba565b82525050565b60006020820190508181036000830152610a7e818461090f565b905092915050565b60006020820190508181036000830152610aa081846109bd565b905092915050565b60006060820190508181036000830152610ac281866109bd565b9050610ad16020830185610900565b8181036040830152610ae381846109bd565b9050949350505050565b60006060820190508181036000830152610b0781866109bd565b9050610b166020830185610900565b610b236040830184610a55565b949350505050565b60006040820190508181036000830152610b4581856109bd565b9050610b546020830184610a55565b9392505050565b6000602082019050610b706000830184610a55565b92915050565b6000610b80610b91565b9050610b8c8282610d38565b919050565b6000604051905090565b600067ffffffffffffffff821115610bb657610bb5610dc7565b5b610bbf82610df6565b9050602081019050919050565b6000819050602082019050919050565b600081519050919050565b600081519050919050565b6000602082019050919050565b600082825260208201905092915050565b600082825260208201905092915050565b600082825260208201905092915050565b6000610c3d82610cba565b9150610c4883610cba565b9250827fffffffffffffffffffffffffffffffffffffffffffffffffffffffffffffffff03821115610c7d57610c7c610d69565b5b828201905092915050565b6000610c9382610c9a565b9050919050565b600073ffffffffffffffffffffffffffffffffffffffff82169050919050565b6000819050919050565b82818337600083830152505050565b60005b83811015610cf1578082015181840152602081019050610cd6565b83811115610d00576000848401525b50505050565b60006002820490506001821680610d1e57607f821691505b60208210811415610d3257610d31610d98565b5b50919050565b610d4182610df6565b810181811067ffffffffffffffff82111715610d6057610d5f610dc7565b5b80604052505050565b7f4e487b7100000000000000000000000000000000000000000000000000000000600052601160045260246000fd5b7f4e487b7100000000000000000000000000000000000000000000000000000000600052602260045260246000fd5b7f4e487b7100000000000000000000000000000000000000000000000000000000600052604160045260246000fd5b6000601f19601f830116905091905056fea2646970667358221220e24894df143144b034eb78517f7349c27b43e9d5ad1585b528fabd847e8c797f64736f6c63430008040033",
  "linkReferences": {},
  "deployedLinkReferences": {}
}