{
  "_format": "hh-sol-artifact-1",
  "contractName": "WavePortal",
  "sourceName": "contracts/WavePortal.sol",
  "abi": [
    {
      "inputs": [],
      "stateMutability": "payable",
      "type": "constructor"
    },
    {
      "anonymous": false,
      "inputs": [
        {
          "indexed": true,
          "internalType": "address",
          "name": "from",
          "type": "address"
        },
        {
          "indexed": false,
          "internalType": "string",
          "name": "message",
          "type": "string"
        },
        {
          "indexed": false,
          "internalType": "uint256",
          "name": "timestamp",
          "type": "uint256"
        }
      ],
      "name": "NewWave",
      "type": "event"
    },
    {
      "inputs": [],
      "name": "getAllWaves",
      "outputs": [
        {
          "components": [
            {
              "internalType": "address",
              "name": "waver",
              "type": "address"
            },
            {
              "internalType": "string",
              "name": "message",
              "type": "string"
            },
            {
              "internalType": "uint256",
              "name": "timestamp",
              "type": "uint256"
            }
          ],
          "internalType": "struct WavePortal.Wave[]",
          "name": "",
          "type": "tuple[]"
        }
      ],
      "stateMutability": "view",
      "type": "function"
    },
    {
      "inputs": [],
      "name": "getMyTotalWaves",
      "outputs": [
        {
          "internalType": "uint256",
          "name": "",
          "type": "uint256"
        }
      ],
      "stateMutability": "view",
      "type": "function"
    },
    {
      "inputs": [],
      "name": "getTotalWaves",
      "outputs": [
        {
          "internalType": "uint256",
          "name": "",
          "type": "uint256"
        }
      ],
      "stateMutability": "view",
      "type": "function"
    },
    {
      "inputs": [
        {
          "internalType": "string",
          "name": "_message",
          "type": "string"
        }
      ],
      "name": "wave",
      "outputs": [],
      "stateMutability": "nonpayable",
      "type": "function"
    }
  ],
  "bytecode": "0x60806040526200004f6040518060400160405280602081526020017f746869732069732074686520636f6e747261637420636f6e7374727563746f728152506200005560201b620005f11760201c565b620001e9565b620000f5816040516024016200006c919062000162565b6040516020818303038152906040527f41304fac000000000000000000000000000000000000000000000000000000007bffffffffffffffffffffffffffffffffffffffffffffffffffffffff19166020820180517bffffffffffffffffffffffffffffffffffffffffffffffffffffffff8381831617835250505050620000f860201b60201c565b50565b60008151905060006a636f6e736f6c652e6c6f679050602083016000808483855afa5050505050565b60006200012e8262000186565b6200013a818562000191565b93506200014c818560208601620001a2565b6200015781620001d8565b840191505092915050565b600060208201905081810360008301526200017e818462000121565b905092915050565b600081519050919050565b600082825260208201905092915050565b60005b83811015620001c2578082015181840152602081019050620001a5565b83811115620001d2576000848401525b50505050565b6000601f19601f8301169050919050565b6110a380620001f96000396000f3fe608060405234801561001057600080fd5b506004361061004c5760003560e01c8063449d46c0146100515780639a2cdc081461006d578063aa7166591461008b578063bd43a908146100a9575b600080fd5b61006b60048036038101906100669190610998565b6100c7565b005b610075610391565b6040516100829190610d15565b60405180910390f35b6100936103dc565b6040516100a09190610d15565b60405180910390f35b6100b16104a0565b6040516100be9190610bde565b60405180910390f35b6101076040518060400160405280601681526020017f257320776176656420772f206d65737361676520257300000000000000000000815250338361068a565b60016000803373ffffffffffffffffffffffffffffffffffffffff1673ffffffffffffffffffffffffffffffffffffffff16815260200190815260200160002060008282546101569190610df7565b92505081905550600180600082825461016f9190610df7565b92505081905550600260405180606001604052803373ffffffffffffffffffffffffffffffffffffffff16815260200183815260200142815250908060018154018082558091505060019003906000526020600020906003020160009091909190915060008201518160000160006101000a81548173ffffffffffffffffffffffffffffffffffffffff021916908373ffffffffffffffffffffffffffffffffffffffff160217905550602082015181600101908051906020019061023592919061088d565b506040820151816002015550503373ffffffffffffffffffffffffffffffffffffffff167f6728ef66814a55b797863bf8ffcd954b19cbca4ed4f0e6cf04c980705fd82c36824260405161028a929190610ca5565b60405180910390a26000655af3107a40009050478111156102e0576040517f08c379a00000000000000000000000000000000000000000000000000000000081526004016102d790610cd5565b60405180910390fd5b60003373ffffffffffffffffffffffffffffffffffffffff168260405161030690610bc9565b60006040518083038185875af1925050503d8060008114610343576040519150601f19603f3d011682016040523d82523d6000602084013e610348565b606091505b505090508061038c576040517f08c379a000000000000000000000000000000000000000000000000000000000815260040161038390610cf5565b60405180910390fd5b505050565b60006103d46040518060400160405280600e81526020017f25642074696d6573207761766564000000000000000000000000000000000000815250600154610729565b600154905090565b600061045c6040518060400160405280601581526020017f2573206861732077617665642025642074696d65730000000000000000000000815250336000803373ffffffffffffffffffffffffffffffffffffffff1673ffffffffffffffffffffffffffffffffffffffff168152602001908152602001600020546107c5565b6000803373ffffffffffffffffffffffffffffffffffffffff1673ffffffffffffffffffffffffffffffffffffffff16815260200190815260200160002054905090565b60606002805480602002602001604051908101604052809291908181526020016000905b828210156105e857838290600052602060002090600302016040518060600160405290816000820160009054906101000a900473ffffffffffffffffffffffffffffffffffffffff1673ffffffffffffffffffffffffffffffffffffffff1673ffffffffffffffffffffffffffffffffffffffff16815260200160018201805461054d90610ecb565b80601f016020809104026020016040519081016040528092919081815260200182805461057990610ecb565b80156105c65780601f1061059b576101008083540402835291602001916105c6565b820191906000526020600020905b8154815290600101906020018083116105a957829003601f168201915b50505050508152602001600282015481525050815260200190600101906104c4565b50505050905090565b610687816040516024016106059190610c00565b6040516020818303038152906040527f41304fac000000000000000000000000000000000000000000000000000000007bffffffffffffffffffffffffffffffffffffffffffffffffffffffff19166020820180517bffffffffffffffffffffffffffffffffffffffffffffffffffffffff8381831617835250505050610864565b50565b6107248383836040516024016106a293929190610c22565b6040516020818303038152906040527fe0e9ad4f000000000000000000000000000000000000000000000000000000007bffffffffffffffffffffffffffffffffffffffffffffffffffffffff19166020820180517bffffffffffffffffffffffffffffffffffffffffffffffffffffffff8381831617835250505050610864565b505050565b6107c1828260405160240161073f929190610ca5565b6040516020818303038152906040527f9710a9d0000000000000000000000000000000000000000000000000000000007bffffffffffffffffffffffffffffffffffffffffffffffffffffffff19166020820180517bffffffffffffffffffffffffffffffffffffffffffffffffffffffff8381831617835250505050610864565b5050565b61085f8383836040516024016107dd93929190610c67565b6040516020818303038152906040527f07c81217000000000000000000000000000000000000000000000000000000007bffffffffffffffffffffffffffffffffffffffffffffffffffffffff19166020820180517bffffffffffffffffffffffffffffffffffffffffffffffffffffffff8381831617835250505050610864565b505050565b60008151905060006a636f6e736f6c652e6c6f679050602083016000808483855afa5050505050565b82805461089990610ecb565b90600052602060002090601f0160209004810192826108bb5760008555610902565b82601f106108d457805160ff1916838001178555610902565b82800160010185558215610902579182015b828111156109015782518255916020019190600101906108e6565b5b50905061090f9190610913565b5090565b5b8082111561092c576000816000905550600101610914565b5090565b600061094361093e84610d55565b610d30565b90508281526020810184848401111561095b57600080fd5b610966848285610e89565b509392505050565b600082601f83011261097f57600080fd5b813561098f848260208601610930565b91505092915050565b6000602082840312156109aa57600080fd5b600082013567ffffffffffffffff8111156109c457600080fd5b6109d08482850161096e565b91505092915050565b60006109e58383610b5b565b905092915050565b6109f681610e4d565b82525050565b610a0581610e4d565b82525050565b6000610a1682610d96565b610a208185610db9565b935083602082028501610a3285610d86565b8060005b85811015610a6e5784840389528151610a4f85826109d9565b9450610a5a83610dac565b925060208a01995050600181019050610a36565b50829750879550505050505092915050565b6000610a8b82610da1565b610a958185610dd5565b9350610aa5818560208601610e98565b610aae81610fbb565b840191505092915050565b6000610ac482610da1565b610ace8185610de6565b9350610ade818560208601610e98565b610ae781610fbb565b840191505092915050565b6000610aff603483610de6565b9150610b0a82610fcc565b604082019050919050565b6000610b22602783610de6565b9150610b2d8261101b565b604082019050919050565b6000610b45600083610dca565b9150610b508261106a565b600082019050919050565b6000606083016000830151610b7360008601826109ed565b5060208301518482036020860152610b8b8282610a80565b9150506040830151610ba06040860182610bab565b508091505092915050565b610bb481610e7f565b82525050565b610bc381610e7f565b82525050565b6000610bd482610b38565b9150819050919050565b60006020820190508181036000830152610bf88184610a0b565b905092915050565b60006020820190508181036000830152610c1a8184610ab9565b905092915050565b60006060820190508181036000830152610c3c8186610ab9565b9050610c4b60208301856109fc565b8181036040830152610c5d8184610ab9565b9050949350505050565b60006060820190508181036000830152610c818186610ab9565b9050610c9060208301856109fc565b610c9d6040830184610bba565b949350505050565b60006040820190508181036000830152610cbf8185610ab9565b9050610cce6020830184610bba565b9392505050565b60006020820190508181036000830152610cee81610af2565b9050919050565b60006020820190508181036000830152610d0e81610b15565b9050919050565b6000602082019050610d2a6000830184610bba565b92915050565b6000610d3a610d4b565b9050610d468282610efd565b919050565b6000604051905090565b600067ffffffffffffffff821115610d7057610d6f610f8c565b5b610d7982610fbb565b9050602081019050919050565b6000819050602082019050919050565b600081519050919050565b600081519050919050565b6000602082019050919050565b600082825260208201905092915050565b600081905092915050565b600082825260208201905092915050565b600082825260208201905092915050565b6000610e0282610e7f565b9150610e0d83610e7f565b9250827fffffffffffffffffffffffffffffffffffffffffffffffffffffffffffffffff03821115610e4257610e41610f2e565b5b828201905092915050565b6000610e5882610e5f565b9050919050565b600073ffffffffffffffffffffffffffffffffffffffff82169050919050565b6000819050919050565b82818337600083830152505050565b60005b83811015610eb6578082015181840152602081019050610e9b565b83811115610ec5576000848401525b50505050565b60006002820490506001821680610ee357607f821691505b60208210811415610ef757610ef6610f5d565b5b50919050565b610f0682610fbb565b810181811067ffffffffffffffff82111715610f2557610f24610f8c565b5b80604052505050565b7f4e487b7100000000000000000000000000000000000000000000000000000000600052601160045260246000fd5b7f4e487b7100000000000000000000000000000000000000000000000000000000600052602260045260246000fd5b7f4e487b7100000000000000000000000000000000000000000000000000000000600052604160045260246000fd5b6000601f19601f8301169050919050565b7f547279696e6720746f207769746864726177206d6f7265206d6f6e657920746860008201527f616e2074686520636f6e7472616374206861732e000000000000000000000000602082015250565b7f4661696c656420746f207769746864726177206d6f6e65792066726f6d20636f60008201527f6e74726163742e00000000000000000000000000000000000000000000000000602082015250565b5056fea26469706673582212208f902c93c189f94b22334f359e3c8ab6c07d78cf5c6d1a8ff4e4bf7a64a0293a64736f6c63430008040033",
  "linkReferences": {},
  "deployedLinkReferences": {}
}