{
  "_format": "hh-sol-artifact-1",
  "contractName": "WavePortal",
  "sourceName": "contracts/WavePortal.sol",
  "abi": [
    {
      "inputs": [],
      "stateMutability": "nonpayable",
      "type": "constructor"
    },
    {
      "inputs": [],
      "name": "getMyTotalWaves",
      "outputs": [
        {
          "internalType": "uint256",
          "name": "",
          "type": "uint256"
        }
      ],
      "stateMutability": "view",
      "type": "function"
    },
    {
      "inputs": [],
      "name": "getTotalWaves",
      "outputs": [
        {
          "internalType": "uint256",
          "name": "",
          "type": "uint256"
        }
      ],
      "stateMutability": "view",
      "type": "function"
    },
    {
      "inputs": [],
      "name": "wave",
      "outputs": [],
      "stateMutability": "nonpayable",
      "type": "function"
    }
  ],
  "bytecode": "0x608060405234801561001057600080fd5b5061003c6040518060600160405280603d8152602001610940603d913961004160201b61024b1760201c565b6101c4565b6100dd816040516024016100559190610142565b6040516020818303038152906040527f41304fac000000000000000000000000000000000000000000000000000000007bffffffffffffffffffffffffffffffffffffffffffffffffffffffff19166020820180517bffffffffffffffffffffffffffffffffffffffffffffffffffffffff83818316178352505050506100e060201b60201c565b50565b60008151905060006a636f6e736f6c652e6c6f679050602083016000808483855afa5050505050565b600061011482610164565b61011e818561016f565b935061012e818560208601610180565b610137816101b3565b840191505092915050565b6000602082019050818103600083015261015c8184610109565b905092915050565b600081519050919050565b600082825260208201905092915050565b60005b8381101561019e578082015181840152602081019050610183565b838111156101ad576000848401525b50505050565b6000601f19601f8301169050919050565b61076d806101d36000396000f3fe608060405234801561001057600080fd5b50600436106100415760003560e01c80636fe15b44146100465780639a2cdc0814610050578063aa7166591461006e575b600080fd5b61004e61008c565b005b61005861013c565b60405161006591906105fb565b60405180910390f35b610076610187565b60405161008391906105fb565b60405180910390f35b60016000803373ffffffffffffffffffffffffffffffffffffffff1673ffffffffffffffffffffffffffffffffffffffff16815260200190815260200160002060008282546100db9190610632565b9250508190555060018060008282546100f49190610632565b9250508190555061013a6040518060400160405280600d81526020017f2573206861732077617665642100000000000000000000000000000000000000815250336102e4565b565b600061017f6040518060400160405280600e81526020017f25642074696d6573207761766564000000000000000000000000000000000000815250600154610380565b600154905090565b60006102076040518060400160405280601581526020017f2573206861732077617665642025642074696d65730000000000000000000000815250336000803373ffffffffffffffffffffffffffffffffffffffff1673ffffffffffffffffffffffffffffffffffffffff1681526020019081526020016000205461041c565b6000803373ffffffffffffffffffffffffffffffffffffffff1673ffffffffffffffffffffffffffffffffffffffff16815260200190815260200160002054905090565b6102e18160405160240161025f919061053b565b6040516020818303038152906040527f41304fac000000000000000000000000000000000000000000000000000000007bffffffffffffffffffffffffffffffffffffffffffffffffffffffff19166020820180517bffffffffffffffffffffffffffffffffffffffffffffffffffffffff83818316178352505050506104bb565b50565b61037c82826040516024016102fa92919061055d565b6040516020818303038152906040527f319af333000000000000000000000000000000000000000000000000000000007bffffffffffffffffffffffffffffffffffffffffffffffffffffffff19166020820180517bffffffffffffffffffffffffffffffffffffffffffffffffffffffff83818316178352505050506104bb565b5050565b61041882826040516024016103969291906105cb565b6040516020818303038152906040527f9710a9d0000000000000000000000000000000000000000000000000000000007bffffffffffffffffffffffffffffffffffffffffffffffffffffffff19166020820180517bffffffffffffffffffffffffffffffffffffffffffffffffffffffff83818316178352505050506104bb565b5050565b6104b68383836040516024016104349392919061058d565b6040516020818303038152906040527f07c81217000000000000000000000000000000000000000000000000000000007bffffffffffffffffffffffffffffffffffffffffffffffffffffffff19166020820180517bffffffffffffffffffffffffffffffffffffffffffffffffffffffff83818316178352505050506104bb565b505050565b60008151905060006a636f6e736f6c652e6c6f679050602083016000808483855afa5050505050565b6104ed81610688565b82525050565b60006104fe82610616565b6105088185610621565b93506105188185602086016106c4565b61052181610726565b840191505092915050565b610535816106ba565b82525050565b6000602082019050818103600083015261055581846104f3565b905092915050565b6000604082019050818103600083015261057781856104f3565b905061058660208301846104e4565b9392505050565b600060608201905081810360008301526105a781866104f3565b90506105b660208301856104e4565b6105c3604083018461052c565b949350505050565b600060408201905081810360008301526105e581856104f3565b90506105f4602083018461052c565b9392505050565b6000602082019050610610600083018461052c565b92915050565b600081519050919050565b600082825260208201905092915050565b600061063d826106ba565b9150610648836106ba565b9250827fffffffffffffffffffffffffffffffffffffffffffffffffffffffffffffffff0382111561067d5761067c6106f7565b5b828201905092915050565b60006106938261069a565b9050919050565b600073ffffffffffffffffffffffffffffffffffffffff82169050919050565b6000819050919050565b60005b838110156106e25780820151818401526020810190506106c7565b838111156106f1576000848401525b50505050565b7f4e487b7100000000000000000000000000000000000000000000000000000000600052601160045260246000fd5b6000601f19601f830116905091905056fea26469706673582212205fceeae3316b5622d1652679fc2a7afc0d6c5da8495897fa8cc26b0147ac214164736f6c6343000804003348657920686579206865792c20796f75206d69676874206265206120636f6e74726163742062757420796f7520617265206e6f7420736d617274203b29",
  "linkReferences": {},
  "deployedLinkReferences": {}
}