{
  "_format": "hh-sol-artifact-1",
  "contractName": "WavePortal",
  "sourceName": "contracts/WavePortal.sol",
  "abi": [
    {
      "inputs": [],
      "stateMutability": "payable",
      "type": "constructor"
    },
    {
      "anonymous": false,
      "inputs": [
        {
          "indexed": true,
          "internalType": "address",
          "name": "from",
          "type": "address"
        },
        {
          "indexed": false,
          "internalType": "string",
          "name": "message",
          "type": "string"
        },
        {
          "indexed": false,
          "internalType": "uint256",
          "name": "timestamp",
          "type": "uint256"
        }
      ],
      "name": "NewWave",
      "type": "event"
    },
    {
      "inputs": [],
      "name": "getAllWaves",
      "outputs": [
        {
          "components": [
            {
              "internalType": "address",
              "name": "waver",
              "type": "address"
            },
            {
              "internalType": "string",
              "name": "message",
              "type": "string"
            },
            {
              "internalType": "uint256",
              "name": "timestamp",
              "type": "uint256"
            }
          ],
          "internalType": "struct WavePortal.Wave[]",
          "name": "",
          "type": "tuple[]"
        }
      ],
      "stateMutability": "view",
      "type": "function"
    },
    {
      "inputs": [],
      "name": "getMyTotalWaves",
      "outputs": [
        {
          "internalType": "uint256",
          "name": "",
          "type": "uint256"
        }
      ],
      "stateMutability": "view",
      "type": "function"
    },
    {
      "inputs": [],
      "name": "getTotalWaves",
      "outputs": [
        {
          "internalType": "uint256",
          "name": "",
          "type": "uint256"
        }
      ],
      "stateMutability": "view",
      "type": "function"
    },
    {
      "inputs": [
        {
          "internalType": "address",
          "name": "",
          "type": "address"
        }
      ],
      "name": "lastWavedAt",
      "outputs": [
        {
          "internalType": "uint256",
          "name": "",
          "type": "uint256"
        }
      ],
      "stateMutability": "view",
      "type": "function"
    },
    {
      "inputs": [
        {
          "internalType": "string",
          "name": "_message",
          "type": "string"
        }
      ],
      "name": "wave",
      "outputs": [],
      "stateMutability": "nonpayable",
      "type": "function"
    }
  ],
  "bytecode": "0x60806040526200004f6040518060400160405280602081526020017f746869732069732074686520636f6e747261637420636f6e7374727563746f728152506200007760201b620007cf1760201c565b606444426200005f9190620001c4565b6200006b919062000261565b60018190555062000308565b62000117816040516024016200008e919062000184565b6040516020818303038152906040527f41304fac000000000000000000000000000000000000000000000000000000007bffffffffffffffffffffffffffffffffffffffffffffffffffffffff19166020820180517bffffffffffffffffffffffffffffffffffffffffffffffffffffffff83818316178352505050506200011a60201b60201c565b50565b60008151905060006a636f6e736f6c652e6c6f679050602083016000808483855afa5050505050565b60006200015082620001a8565b6200015c8185620001b3565b93506200016e8185602086016200022b565b6200017981620002f7565b840191505092915050565b60006020820190508181036000830152620001a0818462000143565b905092915050565b600081519050919050565b600082825260208201905092915050565b6000620001d18262000221565b9150620001de8362000221565b9250827fffffffffffffffffffffffffffffffffffffffffffffffffffffffffffffffff0382111562000216576200021562000299565b5b828201905092915050565b6000819050919050565b60005b838110156200024b5780820151818401526020810190506200022e565b838111156200025b576000848401525b50505050565b60006200026e8262000221565b91506200027b8362000221565b9250826200028e576200028d620002c8565b5b828206905092915050565b7f4e487b7100000000000000000000000000000000000000000000000000000000600052601160045260246000fd5b7f4e487b7100000000000000000000000000000000000000000000000000000000600052601260045260246000fd5b6000601f19601f8301169050919050565b61146e80620003186000396000f3fe608060405234801561001057600080fd5b50600436106100575760003560e01c8063449d46c01461005c5780639a2cdc0814610078578063a42a466314610096578063aa716659146100c6578063bd43a908146100e4575b600080fd5b61007660048036038101906100719190610c50565b610102565b005b610080610555565b60405161008d9190611040565b60405180910390f35b6100b060048036038101906100ab9190610c27565b6105a0565b6040516100bd9190611040565b60405180910390f35b6100ce6105b8565b6040516100db9190611040565b60405180910390f35b6100ec61067e565b6040516100f99190610eb9565b60405180910390f35b42600f600260003373ffffffffffffffffffffffffffffffffffffffff1673ffffffffffffffffffffffffffffffffffffffff1681526020019081526020016000205461014f9190611122565b1061018f576040517f08c379a000000000000000000000000000000000000000000000000000000000815260040161018690611020565b60405180910390fd5b42600260003373ffffffffffffffffffffffffffffffffffffffff1673ffffffffffffffffffffffffffffffffffffffff168152602001908152602001600020819055506102136040518060400160405280601681526020017f257320776176656420772f206d657373616765202573000000000000000000008152503383610868565b6001600360003373ffffffffffffffffffffffffffffffffffffffff1673ffffffffffffffffffffffffffffffffffffffff16815260200190815260200160002060008282546102639190611122565b92505081905550600160008082825461027c9190611122565b92505081905550600460405180606001604052803373ffffffffffffffffffffffffffffffffffffffff16815260200183815260200142815250908060018154018082558091505060019003906000526020600020906003020160009091909190915060008201518160000160006101000a81548173ffffffffffffffffffffffffffffffffffffffff021916908373ffffffffffffffffffffffffffffffffffffffff1602179055506020820151816001019080519060200190610342929190610b07565b50604082015181600201555050606460015442446103609190611122565b61036a9190611122565b6103749190611259565b6001819055506103bb6040518060400160405280601681526020017f52616e646f6d20232067656e6572617465643a20256400000000000000000000815250600154610907565b60326001541015610502576104056040518060400160405280600781526020017f257320776f6e2100000000000000000000000000000000000000000000000000815250336109a3565b6000655af3107a4000905047811115610453576040517f08c379a000000000000000000000000000000000000000000000000000000000815260040161044a90610fe0565b60405180910390fd5b60003373ffffffffffffffffffffffffffffffffffffffff168260405161047990610ea4565b60006040518083038185875af1925050503d80600081146104b6576040519150601f19603f3d011682016040523d82523d6000602084013e6104bb565b606091505b50509050806104ff576040517f08c379a00000000000000000000000000000000000000000000000000000000081526004016104f690611000565b60405180910390fd5b50505b3373ffffffffffffffffffffffffffffffffffffffff167f6728ef66814a55b797863bf8ffcd954b19cbca4ed4f0e6cf04c980705fd82c36824260405161054a929190610fb0565b60405180910390a250565b60006105986040518060400160405280600e81526020017f25642074696d6573207761766564000000000000000000000000000000000000815250600054610907565b600054905090565b60026020528060005260406000206000915090505481565b60006106396040518060400160405280601581526020017f2573206861732077617665642025642074696d6573000000000000000000000081525033600360003373ffffffffffffffffffffffffffffffffffffffff1673ffffffffffffffffffffffffffffffffffffffff16815260200190815260200160002054610a3f565b600360003373ffffffffffffffffffffffffffffffffffffffff1673ffffffffffffffffffffffffffffffffffffffff16815260200190815260200160002054905090565b60606004805480602002602001604051908101604052809291908181526020016000905b828210156107c657838290600052602060002090600302016040518060600160405290816000820160009054906101000a900473ffffffffffffffffffffffffffffffffffffffff1673ffffffffffffffffffffffffffffffffffffffff1673ffffffffffffffffffffffffffffffffffffffff16815260200160018201805461072b906111f6565b80601f0160208091040260200160405190810160405280929190818152602001828054610757906111f6565b80156107a45780601f10610779576101008083540402835291602001916107a4565b820191906000526020600020905b81548152906001019060200180831161078757829003601f168201915b50505050508152602001600282015481525050815260200190600101906106a2565b50505050905090565b610865816040516024016107e39190610edb565b6040516020818303038152906040527f41304fac000000000000000000000000000000000000000000000000000000007bffffffffffffffffffffffffffffffffffffffffffffffffffffffff19166020820180517bffffffffffffffffffffffffffffffffffffffffffffffffffffffff8381831617835250505050610ade565b50565b61090283838360405160240161088093929190610f2d565b6040516020818303038152906040527fe0e9ad4f000000000000000000000000000000000000000000000000000000007bffffffffffffffffffffffffffffffffffffffffffffffffffffffff19166020820180517bffffffffffffffffffffffffffffffffffffffffffffffffffffffff8381831617835250505050610ade565b505050565b61099f828260405160240161091d929190610fb0565b6040516020818303038152906040527f9710a9d0000000000000000000000000000000000000000000000000000000007bffffffffffffffffffffffffffffffffffffffffffffffffffffffff19166020820180517bffffffffffffffffffffffffffffffffffffffffffffffffffffffff8381831617835250505050610ade565b5050565b610a3b82826040516024016109b9929190610efd565b6040516020818303038152906040527f319af333000000000000000000000000000000000000000000000000000000007bffffffffffffffffffffffffffffffffffffffffffffffffffffffff19166020820180517bffffffffffffffffffffffffffffffffffffffffffffffffffffffff8381831617835250505050610ade565b5050565b610ad9838383604051602401610a5793929190610f72565b6040516020818303038152906040527f07c81217000000000000000000000000000000000000000000000000000000007bffffffffffffffffffffffffffffffffffffffffffffffffffffffff19166020820180517bffffffffffffffffffffffffffffffffffffffffffffffffffffffff8381831617835250505050610ade565b505050565b60008151905060006a636f6e736f6c652e6c6f679050602083016000808483855afa5050505050565b828054610b13906111f6565b90600052602060002090601f016020900481019282610b355760008555610b7c565b82601f10610b4e57805160ff1916838001178555610b7c565b82800160010185558215610b7c579182015b82811115610b7b578251825591602001919060010190610b60565b5b509050610b899190610b8d565b5090565b5b80821115610ba6576000816000905550600101610b8e565b5090565b6000610bbd610bb884611080565b61105b565b905082815260208101848484011115610bd557600080fd5b610be08482856111b4565b509392505050565b600081359050610bf781611421565b92915050565b600082601f830112610c0e57600080fd5b8135610c1e848260208601610baa565b91505092915050565b600060208284031215610c3957600080fd5b6000610c4784828501610be8565b91505092915050565b600060208284031215610c6257600080fd5b600082013567ffffffffffffffff811115610c7c57600080fd5b610c8884828501610bfd565b91505092915050565b6000610c9d8383610e36565b905092915050565b610cae81611178565b82525050565b610cbd81611178565b82525050565b6000610cce826110c1565b610cd881856110e4565b935083602082028501610cea856110b1565b8060005b85811015610d265784840389528151610d078582610c91565b9450610d12836110d7565b925060208a01995050600181019050610cee565b50829750879550505050505092915050565b6000610d43826110cc565b610d4d8185611100565b9350610d5d8185602086016111c3565b610d6681611346565b840191505092915050565b6000610d7c826110cc565b610d868185611111565b9350610d968185602086016111c3565b610d9f81611346565b840191505092915050565b6000610db7603483611111565b9150610dc282611357565b604082019050919050565b6000610dda602783611111565b9150610de5826113a6565b604082019050919050565b6000610dfd6000836110f5565b9150610e08826113f5565b600082019050919050565b6000610e20600f83611111565b9150610e2b826113f8565b602082019050919050565b6000606083016000830151610e4e6000860182610ca5565b5060208301518482036020860152610e668282610d38565b9150506040830151610e7b6040860182610e86565b508091505092915050565b610e8f816111aa565b82525050565b610e9e816111aa565b82525050565b6000610eaf82610df0565b9150819050919050565b60006020820190508181036000830152610ed38184610cc3565b905092915050565b60006020820190508181036000830152610ef58184610d71565b905092915050565b60006040820190508181036000830152610f178185610d71565b9050610f266020830184610cb4565b9392505050565b60006060820190508181036000830152610f478186610d71565b9050610f566020830185610cb4565b8181036040830152610f688184610d71565b9050949350505050565b60006060820190508181036000830152610f8c8186610d71565b9050610f9b6020830185610cb4565b610fa86040830184610e95565b949350505050565b60006040820190508181036000830152610fca8185610d71565b9050610fd96020830184610e95565b9392505050565b60006020820190508181036000830152610ff981610daa565b9050919050565b6000602082019050818103600083015261101981610dcd565b9050919050565b6000602082019050818103600083015261103981610e13565b9050919050565b60006020820190506110556000830184610e95565b92915050565b6000611065611076565b90506110718282611228565b919050565b6000604051905090565b600067ffffffffffffffff82111561109b5761109a611317565b5b6110a482611346565b9050602081019050919050565b6000819050602082019050919050565b600081519050919050565b600081519050919050565b6000602082019050919050565b600082825260208201905092915050565b600081905092915050565b600082825260208201905092915050565b600082825260208201905092915050565b600061112d826111aa565b9150611138836111aa565b9250827fffffffffffffffffffffffffffffffffffffffffffffffffffffffffffffffff0382111561116d5761116c61128a565b5b828201905092915050565b60006111838261118a565b9050919050565b600073ffffffffffffffffffffffffffffffffffffffff82169050919050565b6000819050919050565b82818337600083830152505050565b60005b838110156111e15780820151818401526020810190506111c6565b838111156111f0576000848401525b50505050565b6000600282049050600182168061120e57607f821691505b60208210811415611222576112216112e8565b5b50919050565b61123182611346565b810181811067ffffffffffffffff821117156112505761124f611317565b5b80604052505050565b6000611264826111aa565b915061126f836111aa565b92508261127f5761127e6112b9565b5b828206905092915050565b7f4e487b7100000000000000000000000000000000000000000000000000000000600052601160045260246000fd5b7f4e487b7100000000000000000000000000000000000000000000000000000000600052601260045260246000fd5b7f4e487b7100000000000000000000000000000000000000000000000000000000600052602260045260246000fd5b7f4e487b7100000000000000000000000000000000000000000000000000000000600052604160045260246000fd5b6000601f19601f8301169050919050565b7f547279696e6720746f207769746864726177206d6f7265206d6f6e657920746860008201527f616e2074686520636f6e7472616374206861732e000000000000000000000000602082015250565b7f4661696c656420746f207769746864726177206d6f6e65792066726f6d20636f60008201527f6e74726163742e00000000000000000000000000000000000000000000000000602082015250565b50565b7f57616974203135207365636f6e64730000000000000000000000000000000000600082015250565b61142a81611178565b811461143557600080fd5b5056fea2646970667358221220a11a45c6bafe62e7e077471836b9bcabcb64132fff6149e0bfc46942a295daf764736f6c63430008040033",
  "linkReferences": {},
  "deployedLinkReferences": {}
}