{
  "_format": "hh-sol-artifact-1",
  "contractName": "WavePortal",
  "sourceName": "contracts/WavePortal.sol",
  "abi": [
    {
      "inputs": [],
      "stateMutability": "payable",
      "type": "constructor"
    },
    {
      "anonymous": false,
      "inputs": [
        {
          "indexed": true,
          "internalType": "address",
          "name": "from",
          "type": "address"
        },
        {
          "indexed": false,
          "internalType": "string",
          "name": "message",
          "type": "string"
        },
        {
          "indexed": false,
          "internalType": "uint256",
          "name": "timestamp",
          "type": "uint256"
        }
      ],
      "name": "NewWave",
      "type": "event"
    },
    {
      "inputs": [],
      "name": "getAllWaves",
      "outputs": [
        {
          "components": [
            {
              "internalType": "address",
              "name": "waver",
              "type": "address"
            },
            {
              "internalType": "string",
              "name": "message",
              "type": "string"
            },
            {
              "internalType": "uint256",
              "name": "timestamp",
              "type": "uint256"
            }
          ],
          "internalType": "struct WavePortal.Wave[]",
          "name": "",
          "type": "tuple[]"
        }
      ],
      "stateMutability": "view",
      "type": "function"
    },
    {
      "inputs": [],
      "name": "getMyTotalWaves",
      "outputs": [
        {
          "internalType": "uint256",
          "name": "",
          "type": "uint256"
        }
      ],
      "stateMutability": "view",
      "type": "function"
    },
    {
      "inputs": [],
      "name": "getTotalWaves",
      "outputs": [
        {
          "internalType": "uint256",
          "name": "",
          "type": "uint256"
        }
      ],
      "stateMutability": "view",
      "type": "function"
    },
    {
      "inputs": [
        {
          "internalType": "address",
          "name": "",
          "type": "address"
        }
      ],
      "name": "lastWavedAt",
      "outputs": [
        {
          "internalType": "uint256",
          "name": "",
          "type": "uint256"
        }
      ],
      "stateMutability": "view",
      "type": "function"
    },
    {
      "inputs": [
        {
          "internalType": "string",
          "name": "_message",
          "type": "string"
        }
      ],
      "name": "wave",
      "outputs": [],
      "stateMutability": "nonpayable",
      "type": "function"
    }
  ],
  "bytecode": "0x60806040526200004f6040518060400160405280602081526020017f746869732069732074686520636f6e747261637420636f6e7374727563746f728152506200007760201b620007e01760201c565b606444426200005f9190620001c4565b6200006b919062000261565b60018190555062000308565b62000117816040516024016200008e919062000184565b6040516020818303038152906040527f41304fac000000000000000000000000000000000000000000000000000000007bffffffffffffffffffffffffffffffffffffffffffffffffffffffff19166020820180517bffffffffffffffffffffffffffffffffffffffffffffffffffffffff83818316178352505050506200011a60201b60201c565b50565b60008151905060006a636f6e736f6c652e6c6f679050602083016000808483855afa5050505050565b60006200015082620001a8565b6200015c8185620001b3565b93506200016e8185602086016200022b565b6200017981620002f7565b840191505092915050565b60006020820190508181036000830152620001a0818462000143565b905092915050565b600081519050919050565b600082825260208201905092915050565b6000620001d18262000221565b9150620001de8362000221565b9250827fffffffffffffffffffffffffffffffffffffffffffffffffffffffffffffffff0382111562000216576200021562000299565b5b828201905092915050565b6000819050919050565b60005b838110156200024b5780820151818401526020810190506200022e565b838111156200025b576000848401525b50505050565b60006200026e8262000221565b91506200027b8362000221565b9250826200028e576200028d620002c8565b5b828206905092915050565b7f4e487b7100000000000000000000000000000000000000000000000000000000600052601160045260246000fd5b7f4e487b7100000000000000000000000000000000000000000000000000000000600052601260045260246000fd5b6000601f19601f8301169050919050565b61147f80620003186000396000f3fe608060405234801561001057600080fd5b50600436106100575760003560e01c8063449d46c01461005c5780639a2cdc0814610078578063a42a466314610096578063aa716659146100c6578063bd43a908146100e4575b600080fd5b61007660048036038101906100719190610c61565b610102565b005b610080610566565b60405161008d9190611051565b60405180910390f35b6100b060048036038101906100ab9190610c38565b6105b1565b6040516100bd9190611051565b60405180910390f35b6100ce6105c9565b6040516100db9190611051565b60405180910390f35b6100ec61068f565b6040516100f99190610eca565b60405180910390f35b42610384600260003373ffffffffffffffffffffffffffffffffffffffff1673ffffffffffffffffffffffffffffffffffffffff168152602001908152602001600020546101509190611133565b10610190576040517f08c379a000000000000000000000000000000000000000000000000000000000815260040161018790611031565b60405180910390fd5b42600260003373ffffffffffffffffffffffffffffffffffffffff1673ffffffffffffffffffffffffffffffffffffffff168152602001908152602001600020819055506102146040518060400160405280601681526020017f257320776176656420772f206d657373616765202573000000000000000000008152503383610879565b6001600360003373ffffffffffffffffffffffffffffffffffffffff1673ffffffffffffffffffffffffffffffffffffffff16815260200190815260200160002060008282546102649190611133565b92505081905550600160008082825461027d9190611133565b92505081905550600460405180606001604052803373ffffffffffffffffffffffffffffffffffffffff16815260200183815260200142815250908060018154018082558091505060019003906000526020600020906003020160009091909190915060008201518160000160006101000a81548173ffffffffffffffffffffffffffffffffffffffff021916908373ffffffffffffffffffffffffffffffffffffffff1602179055506020820151816001019080519060200190610343929190610b18565b50604082015181600201555050606460015442446103619190611133565b61036b9190611133565b610375919061126a565b6001819055506103bc6040518060400160405280601681526020017f52616e646f6d20232067656e6572617465643a20256400000000000000000000815250600154610918565b603260015410806103d257506001600480549050145b15610513576104166040518060400160405280600781526020017f257320776f6e2100000000000000000000000000000000000000000000000000815250336109b4565b6000655af3107a4000905047811115610464576040517f08c379a000000000000000000000000000000000000000000000000000000000815260040161045b90610ff1565b60405180910390fd5b60003373ffffffffffffffffffffffffffffffffffffffff168260405161048a90610eb5565b60006040518083038185875af1925050503d80600081146104c7576040519150601f19603f3d011682016040523d82523d6000602084013e6104cc565b606091505b5050905080610510576040517f08c379a000000000000000000000000000000000000000000000000000000000815260040161050790611011565b60405180910390fd5b50505b3373ffffffffffffffffffffffffffffffffffffffff167f6728ef66814a55b797863bf8ffcd954b19cbca4ed4f0e6cf04c980705fd82c36824260405161055b929190610fc1565b60405180910390a250565b60006105a96040518060400160405280600e81526020017f25642074696d6573207761766564000000000000000000000000000000000000815250600054610918565b600054905090565b60026020528060005260406000206000915090505481565b600061064a6040518060400160405280601581526020017f2573206861732077617665642025642074696d6573000000000000000000000081525033600360003373ffffffffffffffffffffffffffffffffffffffff1673ffffffffffffffffffffffffffffffffffffffff16815260200190815260200160002054610a50565b600360003373ffffffffffffffffffffffffffffffffffffffff1673ffffffffffffffffffffffffffffffffffffffff16815260200190815260200160002054905090565b60606004805480602002602001604051908101604052809291908181526020016000905b828210156107d757838290600052602060002090600302016040518060600160405290816000820160009054906101000a900473ffffffffffffffffffffffffffffffffffffffff1673ffffffffffffffffffffffffffffffffffffffff1673ffffffffffffffffffffffffffffffffffffffff16815260200160018201805461073c90611207565b80601f016020809104026020016040519081016040528092919081815260200182805461076890611207565b80156107b55780601f1061078a576101008083540402835291602001916107b5565b820191906000526020600020905b81548152906001019060200180831161079857829003601f168201915b50505050508152602001600282015481525050815260200190600101906106b3565b50505050905090565b610876816040516024016107f49190610eec565b6040516020818303038152906040527f41304fac000000000000000000000000000000000000000000000000000000007bffffffffffffffffffffffffffffffffffffffffffffffffffffffff19166020820180517bffffffffffffffffffffffffffffffffffffffffffffffffffffffff8381831617835250505050610aef565b50565b61091383838360405160240161089193929190610f3e565b6040516020818303038152906040527fe0e9ad4f000000000000000000000000000000000000000000000000000000007bffffffffffffffffffffffffffffffffffffffffffffffffffffffff19166020820180517bffffffffffffffffffffffffffffffffffffffffffffffffffffffff8381831617835250505050610aef565b505050565b6109b0828260405160240161092e929190610fc1565b6040516020818303038152906040527f9710a9d0000000000000000000000000000000000000000000000000000000007bffffffffffffffffffffffffffffffffffffffffffffffffffffffff19166020820180517bffffffffffffffffffffffffffffffffffffffffffffffffffffffff8381831617835250505050610aef565b5050565b610a4c82826040516024016109ca929190610f0e565b6040516020818303038152906040527f319af333000000000000000000000000000000000000000000000000000000007bffffffffffffffffffffffffffffffffffffffffffffffffffffffff19166020820180517bffffffffffffffffffffffffffffffffffffffffffffffffffffffff8381831617835250505050610aef565b5050565b610aea838383604051602401610a6893929190610f83565b6040516020818303038152906040527f07c81217000000000000000000000000000000000000000000000000000000007bffffffffffffffffffffffffffffffffffffffffffffffffffffffff19166020820180517bffffffffffffffffffffffffffffffffffffffffffffffffffffffff8381831617835250505050610aef565b505050565b60008151905060006a636f6e736f6c652e6c6f679050602083016000808483855afa5050505050565b828054610b2490611207565b90600052602060002090601f016020900481019282610b465760008555610b8d565b82601f10610b5f57805160ff1916838001178555610b8d565b82800160010185558215610b8d579182015b82811115610b8c578251825591602001919060010190610b71565b5b509050610b9a9190610b9e565b5090565b5b80821115610bb7576000816000905550600101610b9f565b5090565b6000610bce610bc984611091565b61106c565b905082815260208101848484011115610be657600080fd5b610bf18482856111c5565b509392505050565b600081359050610c0881611432565b92915050565b600082601f830112610c1f57600080fd5b8135610c2f848260208601610bbb565b91505092915050565b600060208284031215610c4a57600080fd5b6000610c5884828501610bf9565b91505092915050565b600060208284031215610c7357600080fd5b600082013567ffffffffffffffff811115610c8d57600080fd5b610c9984828501610c0e565b91505092915050565b6000610cae8383610e47565b905092915050565b610cbf81611189565b82525050565b610cce81611189565b82525050565b6000610cdf826110d2565b610ce981856110f5565b935083602082028501610cfb856110c2565b8060005b85811015610d375784840389528151610d188582610ca2565b9450610d23836110e8565b925060208a01995050600181019050610cff565b50829750879550505050505092915050565b6000610d54826110dd565b610d5e8185611111565b9350610d6e8185602086016111d4565b610d7781611357565b840191505092915050565b6000610d8d826110dd565b610d978185611122565b9350610da78185602086016111d4565b610db081611357565b840191505092915050565b6000610dc8603483611122565b9150610dd382611368565b604082019050919050565b6000610deb602783611122565b9150610df6826113b7565b604082019050919050565b6000610e0e600083611106565b9150610e1982611406565b600082019050919050565b6000610e31600f83611122565b9150610e3c82611409565b602082019050919050565b6000606083016000830151610e5f6000860182610cb6565b5060208301518482036020860152610e778282610d49565b9150506040830151610e8c6040860182610e97565b508091505092915050565b610ea0816111bb565b82525050565b610eaf816111bb565b82525050565b6000610ec082610e01565b9150819050919050565b60006020820190508181036000830152610ee48184610cd4565b905092915050565b60006020820190508181036000830152610f068184610d82565b905092915050565b60006040820190508181036000830152610f288185610d82565b9050610f376020830184610cc5565b9392505050565b60006060820190508181036000830152610f588186610d82565b9050610f676020830185610cc5565b8181036040830152610f798184610d82565b9050949350505050565b60006060820190508181036000830152610f9d8186610d82565b9050610fac6020830185610cc5565b610fb96040830184610ea6565b949350505050565b60006040820190508181036000830152610fdb8185610d82565b9050610fea6020830184610ea6565b9392505050565b6000602082019050818103600083015261100a81610dbb565b9050919050565b6000602082019050818103600083015261102a81610dde565b9050919050565b6000602082019050818103600083015261104a81610e24565b9050919050565b60006020820190506110666000830184610ea6565b92915050565b6000611076611087565b90506110828282611239565b919050565b6000604051905090565b600067ffffffffffffffff8211156110ac576110ab611328565b5b6110b582611357565b9050602081019050919050565b6000819050602082019050919050565b600081519050919050565b600081519050919050565b6000602082019050919050565b600082825260208201905092915050565b600081905092915050565b600082825260208201905092915050565b600082825260208201905092915050565b600061113e826111bb565b9150611149836111bb565b9250827fffffffffffffffffffffffffffffffffffffffffffffffffffffffffffffffff0382111561117e5761117d61129b565b5b828201905092915050565b60006111948261119b565b9050919050565b600073ffffffffffffffffffffffffffffffffffffffff82169050919050565b6000819050919050565b82818337600083830152505050565b60005b838110156111f25780820151818401526020810190506111d7565b83811115611201576000848401525b50505050565b6000600282049050600182168061121f57607f821691505b60208210811415611233576112326112f9565b5b50919050565b61124282611357565b810181811067ffffffffffffffff8211171561126157611260611328565b5b80604052505050565b6000611275826111bb565b9150611280836111bb565b9250826112905761128f6112ca565b5b828206905092915050565b7f4e487b7100000000000000000000000000000000000000000000000000000000600052601160045260246000fd5b7f4e487b7100000000000000000000000000000000000000000000000000000000600052601260045260246000fd5b7f4e487b7100000000000000000000000000000000000000000000000000000000600052602260045260246000fd5b7f4e487b7100000000000000000000000000000000000000000000000000000000600052604160045260246000fd5b6000601f19601f8301169050919050565b7f547279696e6720746f207769746864726177206d6f7265206d6f6e657920746860008201527f616e2074686520636f6e7472616374206861732e000000000000000000000000602082015250565b7f4661696c656420746f207769746864726177206d6f6e65792066726f6d20636f60008201527f6e74726163742e00000000000000000000000000000000000000000000000000602082015250565b50565b7f57616974203135206d696e757465730000000000000000000000000000000000600082015250565b61143b81611189565b811461144657600080fd5b5056fea26469706673582212202080546703a635ad2324ff09bf8df6bb7373dac35500c1b609aa08f44384d6e464736f6c63430008040033",
  "linkReferences": {},
  "deployedLinkReferences": {}
}